:100000000C942A000C9434000C9434000C943400AA
:100010000C9434000C9434000C9434000C94340090
:100020000C9434000C9434000C9434000C94340080
:100030000C9434000C9434000C9434000C94340070
:100040000C9434000C9434000C9434000C94340060
:100050000C94340011241FBECFE5D4E0DEBFCDBF29
:100060000E9436000C9459000C9400008FEF8ABB5C
:100070008CEC8BBB80E090E0DC0103C00196A11DFD
:10008000B11D803A26E8920721E0A207B105B4F33A
:1000900083E38BBB80E090E0DC0103C00196A11DEF
:1000A000B11D803A26E8920721E0A207B105B4F31A
:0600B000DFCFF894FFCF42
:00000001FF
