S018000053776974636820496E746572666163652E73726563E9
S11300000C942A000C9434000C9434000C943400A6
S11300100C9434000C9434000C9434000C9434008C
S11300200C9434000C9434000C9434000C9434007C
S11300300C9434000C9434000C9434000C9434006C
S11300400C9434000C9434000C9434000C9434005C
S11300500C94340011241FBECFE5D4E0DEBFCDBF25
S11300600E9436000C9489000C9400008FEF8ABB28
S113007014BA83B38838B1F48FEF8BBB2FEF80E7CA
S113008092E0215080409040E1F700C000001BBA8C
S11300902FEF80E792E0215080409040E1F700C0CC
S11300A00000E7CF83B38038B9F480EF8BBB2FEF28
S11300B080E792E0215080409040E1F700C00000CA
S11300C08FEF8BBB2FEF80E792E021508040904070
S11300D0E1F700C00000CDCF83B38830B9F48FE0DE
S11300E08BBB2FEF80E792E0215080409040E1F7F6
S11300F000C000008FEF8BBB2FEF80E792E0215010
S113010080409040E1F700C00000B3CF8FEF8BBB7D
S1090110B0CFF894FFCF0C
S9030000FC
