S02B0000536576656E205365676D656E7420446973706C6179203220446967697420436F756E7465722E737274
S11300000C942A000C9434000C9434000C943400A6
S11300100C9434000C9434000C9434000C9434008C
S11300200C9434000C9434000C9434000C9434007C
S11300300C9434000C9434000C9434000C9434006C
S11300400C9434000C9434000C9434000C9434005C
S11300500C94340011241FBECFE5D4E0DEBFCDBF25
S11300600E9436000C9436040C9400008FE781BB88
S113007084BBFFE3F2BBF5BB2FEF32E547E0215031
S113008030404040E1F700C00000E6E0E5BB5FEF30
S113009062E577E0515060407040E1F700C0000035
S11300A07BE575BB8FEF92E5A7E081509040A040BF
S11300B0E1F700C000006FE465BBBFEFC2E527E0D5
S11300C0B150C0402040E1F700C0000056E655BBE7
S11300D03FEF42E587E0315040408040E1F700C007
S11300E000004DE645BB9FEFA2E5B7E09150A0406C
S11300F0B040E1F700C000003DE735BBCFEF22E59B
S113010087E0C15020408040E1F700C0000027E0B4
S113011025BB9FEFA2E5B7E09150A040B040E1F7C6
S113012000C000009FE795BBCFEF82E5A7E0C15078
S11301308040A040E1F700C000008FE685BBBFEF20
S1130140C2E5A7E0B150C040A040E1F700C0000004
S1130150E2BBF5BBBFEFC2E5A7E0B150C040A04091
S1130160E1F700C00000E5BBBFEFC2E5A7E0B15076
S1130170C040A040E1F700C0000075BBBFEFC2E57E
S1130180A7E0B150C040A040E1F700C0000065BB4B
S1130190BFEFC2E5A7E0B150C040A040E1F700C006
S11301A0000055BBBFEFC2E5A7E0B150C040A0407E
S11301B0E1F700C0000045BBBFEFC2E5A7E0B150C6
S11301C0C040A040E1F700C0000035BBBFEFC2E56E
S11301D0A7E0B150C040A040E1F700C0000025BB3B
S11301E0BFEFC2E5A7E0B150C040A040E1F700C0B6
S11301F0000095BBBFEFC2E5A7E0B150C040A040EE
S1130200E1F700C0000085BBBFEFC2E5A7E0B15035
S1130210C040A040E1F700C0000072BBF5BBBFEFD7
S1130220C2E5A7E0B150C040A040E1F700C0000023
S1130230E5BBBFEFC2E5A7E0B150C040A040E1F785
S113024000C0000075BBBFEFC2E5A7E0B150C040DD
S1130250A040E1F700C0000065BBBFEFC2E5A7E026
S1130260B150C040A040E1F700C0000055BBBFEF53
S1130270C2E5A7E0B150C040A040E1F700C00000D3
S113028045BBBFEFC2E5A7E0B150C040A040E1F7D5
S113029000C0000035BBBFEFC2E5A7E0B150C040CD
S11302A0A040E1F700C0000025BBBFEFC2E5A7E016
S11302B0B150C040A040E1F700C0000095BBBFEFC3
S11302C0C2E5A7E0B150C040A040E1F700C0000083
S11302D085BBBFEFC2E5A7E0B150C040A040E1F745
S11302E000C0000062BBF5BBBFEFC2E5A7E0B150A0
S11302F0C040A040E1F700C00000E5BBBFEFC2E58D
S1130300A7E0B150C040A040E1F700C0000075BBB9
S1130310BFEFC2E5A7E0B150C040A040E1F700C084
S1130320000065BBBFEFC2E5A7E0B150C040A040EC
S1130330E1F700C0000055BBBFEFC2E5A7E0B15034
S1130340C040A040E1F700C0000045BBBFEFC2E5DC
S1130350A7E0B150C040A040E1F700C0000035BBA9
S1130360BFEFC2E5A7E0B150C040A040E1F700C034
S1130370000025BBBFEFC2E5A7E0B150C040A040DC
S1130380E1F700C0000095BBBFEFC2E5A7E0B150A4
S1130390C040A040E1F700C0000085BBBFEFC2E54C
S11303A0A7E0B150C040A040E1F700C0000052BB3C
S11303B0F5BBBFEFC2E5A7E0B150C040A040E1F7F4
S11303C000C00000E5BBBFEFC2E5A7E0B150C040EC
S11303D0A040E1F700C0000075BBBFEFC2E5A7E095
S11303E0B150C040A040E1F700C0000065BBBFEFC2
S11303F0C2E5A7E0B150C040A040E1F700C0000052
S113040055BBBFEFC2E5A7E0B150C040A040E1F743
S113041000C0000045BBBFEFC2E5A7E0B150C0403B
S1130420A040E1F700C0000035BBBFEFC2E5A7E084
S1130430B150C040A040E1F700C0000025BBBFEFB1
S1130440C2E5A7E0B150C040A040E1F700C0000001
S113045095BBBFEFC2E5A7E0B150C040A040E1F7B3
S113046000C0000085BBBFEFC2E5A7E0B150C040AB
S1130470A040E1F700C0000042BBF5BBBFEFC2E5FE
S1130480A7E0B150C040A040E1F700C00000E5BBC8
S1130490BFEFC2E5A7E0B150C040A040E1F700C003
S11304A0000075BBBFEFC2E5A7E0B150C040A0405B
S11304B0E1F700C0000065BBBFEFC2E5A7E0B150A3
S11304C0C040A040E1F700C0000055BBBFEFC2E54B
S11304D0A7E0B150C040A040E1F700C0000045BB18
S11304E0BFEFC2E5A7E0B150C040A040E1F700C0B3
S11304F0000035BBBFEFC2E5A7E0B150C040A0404B
S1130500E1F700C0000025BBBFEFC2E5A7E0B15092
S1130510C040A040E1F700C0000095BBBFEFC2E5BA
S1130520A7E0B150C040A040E1F700C0000085BB87
S1130530BFEFC2E5A7E0B150C040A040E1F700C062
S1130540000032BBF5BBBFEFC2E5A7E0B150C0402D
S1130550A040E1F700C00000E5BBBFEFC2E5A7E0A3
S1130560B150C040A040E1F700C0000075BBBFEF30
S1130570C2E5A7E0B150C040A040E1F700C00000D0
S113058065BBBFEFC2E5A7E0B150C040A040E1F7B2
S113059000C0000055BBBFEFC2E5A7E0B150C040AA
S11305A0A040E1F700C0000045BBBFEFC2E5A7E0F3
S11305B0B150C040A040E1F700C0000035BBBFEF20
S11305C0C2E5A7E0B150C040A040E1F700C0000080
S11305D025BBBFEFC2E5A7E0B150C040A040E1F7A2
S11305E000C0000095BBBFEFC2E5A7E0B150C0401A
S11305F0A040E1F700C0000085BBBFEFC2E5A7E063
S1130600B150C040A040E1F700C0000022BBF5BBE0
S1130610BFEFC2E5A7E0B150C040A040E1F700C081
S11306200000E5BBBFEFC2E5A7E0B150C040A04069
S1130630E1F700C0000075BBBFEFC2E5A7E0B15011
S1130640C040A040E1F700C0000065BBBFEFC2E5B9
S1130650A7E0B150C040A040E1F700C0000055BB86
S1130660BFEFC2E5A7E0B150C040A040E1F700C031
S1130670000045BBBFEFC2E5A7E0B150C040A040B9
S1130680E1F700C0000035BBBFEFC2E5A7E0B15001
S1130690C040A040E1F700C0000025BBBFEFC2E5A9
S11306A0A7E0B150C040A040E1F700C0000095BBF6
S11306B0BFEFC2E5A7E0B150C040A040E1F700C0E1
S11306C0000085BBBFEFC2E5A7E0B150C040A04029
S11306D0E1F700C0000092BBF5BBBFEFC2E5A7E0A5
S11306E0B150C040A040E1F700C00000E5BBBFEF3F
S11306F0C2E5A7E0B150C040A040E1F700C000004F
S113070075BBBFEFC2E5A7E0B150C040A040E1F720
S113071000C0000065BBBFEFC2E5A7E0B150C04018
S1130720A040E1F700C0000055BBBFEFC2E5A7E061
S1130730B150C040A040E1F700C0000045BBBFEF8E
S1130740C2E5A7E0B150C040A040E1F700C00000FE
S113075035BBBFEFC2E5A7E0B150C040A040E1F710
S113076000C0000025BBBFEFC2E5A7E0B150C04008
S1130770A040E1F700C0000095BBBFEFC2E5A7E0D1
S1130780B150C040A040E1F700C0000085BBBFEFFE
S1130790C2E5A7E0B150C040A040E1F700C00000AE
S11307A082BBF5BBBFEFC2E5F7E0B150C040F040FB
S11307B0E1F700C00000E5BBAFEFB2E5C7E0A15030
S11307C0B040C040E1F700C0000075BBEFEFF2E5B8
S11307D077E0E150F0407040E1F700C0000065BBF5
S11307E0AFEFB2E5C7E0A150B040C040E1F700C0B0
S11307F0000055BBEFEFF2E557E0E150F040504008
S1130800E1F700C0000045BB6FEF72E5A7E061505F
S11308107040A040E1F700C0000035BBBFEFC2E567
S1130820E7E0B150C040E040E1F700C0000025BB64
S1130830FFEF22E537E0F15020403040E1F700C0FF
S1130840000095BB4FEF52E567E0415050406040D7
S1130850E1F700C0000085BB7FEF82E597E07150AF
S113086080409040E1F700C0000003CCF894FFCF33
S9030000FC
