S02B0000536576656E205365676D656E7420446973706C61792028436F6D6D6F6E20416E6F6465292E73726591
S11300000C942A000C9434000C9434000C943400A6
S11300100C9434000C9434000C9434000C9434008C
S11300200C9434000C9434000C9434000C9434007C
S11300300C9434000C9434000C9434000C9434006C
S11300400C9434000C9434000C9434000C9434005C
S11300500C94340011241FBECFE5D4E0DEBFCDBF25
S11300600E9436000C94A6000C9400008FE781BB1C
S113007080E482BB2FEF89E698E1215080409040D4
S1130080E1F700C0000089E782BB2FEF89E698E121
S1130090215080409040E1F700C0000084E282BB20
S11300A02FEF89E698E1215080409040E1F700C0AD
S11300B0000080E382BB2FEF89E698E12150804065
S11300C09040E1F700C0000089E182BB2FEF89E690
S11300D098E1215080409040E1F700C0000082E1A7
S11300E082BB2FEF89E698E1215080409040E1F7F0
S11300F000C0000082E082BB2FEF89E698E1215026
S113010080409040E1F700C0000088E782BB2FEFF9
S113011089E698E1215080409040E1F700C000005A
S113012012BA2FEF89E698E1215080409040E1F720
S113013000C0000080E182BB2FEF89E698E12150E6
S113014080409040E1F700C0000092CFF894FFCFC8
S9030000FC
