S02B0000536576656E205365676D656E7420446973706C6179206F6E204D756C7469706C6520506F7274732E1B
S11300000C942A000C9434000C9434000C943400A6
S11300100C9434000C9434000C9434000C9434008C
S11300200C9434000C9434000C9434000C9434007C
S11300300C9434000C9434000C9434000C9434006C
S11300400C9434000C9434000C9434000C9434005C
S11300500C94340011241FBECFE5D4E0DEBFCDBF25
S11300600E9436000C94BB000C9400008FE781BB07
S113007084BB8FE385BB80E482BB2FEF89E698E1E4
S1130080215080409040E1F700C0000086E085BB2D
S113009089E782BB2FEF89E698E1215080409040A8
S11300A0E1F700C000008BE585BB84E282BB2FEF43
S11300B089E698E1215080409040E1F700C00000BB
S11300C08FE485BB80E382BB2FEF89E698E1215062
S11300D080409040E1F700C0000086E685BB89E1DE
S11300E082BB2FEF89E698E1215080409040E1F7F0
S11300F000C000008DE685BB82E182BB2FEF89E65C
S113010098E1215080409040E1F700C000008DE765
S113011085BB82E082BB2FEF89E698E121508040C5
S11301209040E1F700C0000087E085BB88E782BB10
S11301302FEF89E698E1215080409040E1F700C01C
S113014000008FE785BB12BA2FEF89E698E12150B2
S113015080409040E1F700C000008FE685BB80E15D
S113016082BB2FEF89E698E1215080409040E1F76F
S10D017000C000007ECFF894FFCF1A
S9030000FC
