:100000000C942A000C9434000C9434000C943400AA
:100010000C9434000C9434000C9434000C94340090
:100020000C9434000C9434000C9434000C94340080
:100030000C9434000C9434000C9434000C94340070
:100040000C9434000C9434000C9434000C94340060
:100050000C94340011241FBECFE5D4E0DEBFCDBF29
:100060000E9436000C94E5000C9400008FEF84BBD6
:1000700060E070E050C015BA2FE748E381E02150FE
:1000800040408040E1F700C0000020E030E016C0B2
:1000900045B381E090E0022E02C0880F991F0A94B8
:1000A000E2F7842B85BB9FE748E381E09150404015
:1000B0008040E1F700C000002F5F3F4F283031053E
:1000C0003CF38FEF85BB9FE728E341E09150204050
:1000D0004040E1F700C0000020E030E017C045B329
:1000E00081E090E0022E02C0880F991F0A94E2F787
:1000F0008095842385BB8FE798E341E08150904051
:100100004040E1F700C000002F5F3F4F283031052D
:1001100034F36F5F7F4F633071050CF4ACCF60E058
:1001200070E04EC015BA8FEF91EE24E08150904000
:100130002040E1F700C0000027E030E016C045B3E2
:1001400081E090E0022E02C0880F991F0A94E2F726
:10015000842B85BB4FE788E391E04150804090407D
:10016000E1F700C0000021503109332344F78FEF3D
:1001700085BB2FE748E381E0215040408040E1F714
:1001800000C0000027E030E017C045B381E090E0F8
:10019000022E02C0880F991F0A94E2F780958423EB
:1001A00085BB9FE748E381E0915040408040E1F704
:1001B00000C000002150310933233CF76F5F7F4FAF
:0E01C000633071050CF4AECF53CFF894FFCF2F
:00000001FF
