S01800004F70657261746F7273206F6E204C45442E737265635B
S11300000C942A000C9434000C9434000C943400A6
S11300100C9434000C9434000C9434000C9434008C
S11300200C9434000C9434000C9434000C9434007C
S11300300C9434000C9434000C9434000C9434006C
S11300400C9434000C9434000C9434000C9434005C
S11300500C94340011241FBECFE5D4E0DEBFCDBF25
S11300600E9436000C9465000C9400008FEF8ABB4C
S11300701BBA80E090E0DC0103C00196A11DB11D14
S1130080883A21E69207A105B105BCF320E030E0EF
S113009018C080E890E0022E02C0959587950A94D6
S11300A0E2F78BBB80E090E0DC0103C00196A11D68
S11300B0B11D883A41E69407A105B105BCF32F5F51
S11100C03F4F283031052CF3D3CFF894FFCFF7
S9030000FC
